{
  "_format": "hh-sol-artifact-1",
  "contractName": "MultiSigWallet",
  "sourceName": "contracts/MultiSigWallet.sol",
  "abi": [
    {
      "inputs": [
        {
          "internalType": "address",
          "name": "_tokenAddress",
          "type": "address"
        },
        {
          "internalType": "address[]",
          "name": "_owners",
          "type": "address[]"
        },
        {
          "internalType": "uint256",
          "name": "_numConfirmationsRequired",
          "type": "uint256"
        }
      ],
      "stateMutability": "nonpayable",
      "type": "constructor"
    },
    {
      "anonymous": false,
      "inputs": [
        {
          "indexed": true,
          "internalType": "address",
          "name": "owner",
          "type": "address"
        },
        {
          "indexed": true,
          "internalType": "uint256",
          "name": "txIndex",
          "type": "uint256"
        }
      ],
      "name": "ConfirmTransaction",
      "type": "event"
    },
    {
      "anonymous": false,
      "inputs": [
        {
          "indexed": true,
          "internalType": "address",
          "name": "sender",
          "type": "address"
        },
        {
          "indexed": false,
          "internalType": "uint256",
          "name": "amount",
          "type": "uint256"
        },
        {
          "indexed": false,
          "internalType": "uint256",
          "name": "balance",
          "type": "uint256"
        }
      ],
      "name": "Deposit",
      "type": "event"
    },
    {
      "anonymous": false,
      "inputs": [
        {
          "indexed": true,
          "internalType": "address",
          "name": "owner",
          "type": "address"
        },
        {
          "indexed": true,
          "internalType": "uint256",
          "name": "txIndex",
          "type": "uint256"
        }
      ],
      "name": "ExecuteTransaction",
      "type": "event"
    },
    {
      "anonymous": false,
      "inputs": [
        {
          "indexed": true,
          "internalType": "address",
          "name": "owner",
          "type": "address"
        },
        {
          "indexed": true,
          "internalType": "uint256",
          "name": "txIndex",
          "type": "uint256"
        }
      ],
      "name": "RevokeConfirmation",
      "type": "event"
    },
    {
      "anonymous": false,
      "inputs": [
        {
          "indexed": true,
          "internalType": "address",
          "name": "owner",
          "type": "address"
        },
        {
          "indexed": true,
          "internalType": "uint256",
          "name": "txIndex",
          "type": "uint256"
        },
        {
          "indexed": true,
          "internalType": "address",
          "name": "to",
          "type": "address"
        },
        {
          "indexed": false,
          "internalType": "uint256",
          "name": "value",
          "type": "uint256"
        },
        {
          "indexed": false,
          "internalType": "bytes",
          "name": "data",
          "type": "bytes"
        }
      ],
      "name": "SubmitTransaction",
      "type": "event"
    },
    {
      "inputs": [
        {
          "internalType": "uint256",
          "name": "_txIndex",
          "type": "uint256"
        }
      ],
      "name": "confirmTransaction",
      "outputs": [],
      "stateMutability": "nonpayable",
      "type": "function"
    },
    {
      "inputs": [
        {
          "internalType": "uint256",
          "name": "_txIndex",
          "type": "uint256"
        }
      ],
      "name": "executeTransaction",
      "outputs": [],
      "stateMutability": "nonpayable",
      "type": "function"
    },
    {
      "inputs": [],
      "name": "getBalance",
      "outputs": [
        {
          "internalType": "uint256",
          "name": "",
          "type": "uint256"
        }
      ],
      "stateMutability": "view",
      "type": "function"
    },
    {
      "inputs": [],
      "name": "getOwners",
      "outputs": [
        {
          "internalType": "address[]",
          "name": "",
          "type": "address[]"
        }
      ],
      "stateMutability": "view",
      "type": "function"
    },
    {
      "inputs": [
        {
          "internalType": "uint256",
          "name": "_txIndex",
          "type": "uint256"
        }
      ],
      "name": "getTransaction",
      "outputs": [
        {
          "internalType": "address",
          "name": "to",
          "type": "address"
        },
        {
          "internalType": "uint256",
          "name": "value",
          "type": "uint256"
        },
        {
          "internalType": "bytes",
          "name": "data",
          "type": "bytes"
        },
        {
          "internalType": "bool",
          "name": "executed",
          "type": "bool"
        },
        {
          "internalType": "uint256",
          "name": "numConfirmations",
          "type": "uint256"
        }
      ],
      "stateMutability": "view",
      "type": "function"
    },
    {
      "inputs": [],
      "name": "getTransactionCount",
      "outputs": [
        {
          "internalType": "uint256",
          "name": "",
          "type": "uint256"
        }
      ],
      "stateMutability": "view",
      "type": "function"
    },
    {
      "inputs": [
        {
          "internalType": "uint256",
          "name": "",
          "type": "uint256"
        },
        {
          "internalType": "address",
          "name": "",
          "type": "address"
        }
      ],
      "name": "isConfirmed",
      "outputs": [
        {
          "internalType": "bool",
          "name": "",
          "type": "bool"
        }
      ],
      "stateMutability": "view",
      "type": "function"
    },
    {
      "inputs": [
        {
          "internalType": "address",
          "name": "",
          "type": "address"
        }
      ],
      "name": "isOwner",
      "outputs": [
        {
          "internalType": "bool",
          "name": "",
          "type": "bool"
        }
      ],
      "stateMutability": "view",
      "type": "function"
    },
    {
      "inputs": [],
      "name": "numConfirmationsRequired",
      "outputs": [
        {
          "internalType": "uint256",
          "name": "",
          "type": "uint256"
        }
      ],
      "stateMutability": "view",
      "type": "function"
    },
    {
      "inputs": [
        {
          "internalType": "uint256",
          "name": "",
          "type": "uint256"
        }
      ],
      "name": "owners",
      "outputs": [
        {
          "internalType": "address",
          "name": "",
          "type": "address"
        }
      ],
      "stateMutability": "view",
      "type": "function"
    },
    {
      "inputs": [
        {
          "internalType": "uint256",
          "name": "_txIndex",
          "type": "uint256"
        }
      ],
      "name": "revokeConfirmation",
      "outputs": [],
      "stateMutability": "nonpayable",
      "type": "function"
    },
    {
      "inputs": [
        {
          "internalType": "address",
          "name": "_to",
          "type": "address"
        },
        {
          "internalType": "uint256",
          "name": "_value",
          "type": "uint256"
        },
        {
          "internalType": "bytes",
          "name": "_data",
          "type": "bytes"
        }
      ],
      "name": "submitTransaction",
      "outputs": [],
      "stateMutability": "nonpayable",
      "type": "function"
    },
    {
      "inputs": [],
      "name": "token",
      "outputs": [
        {
          "internalType": "contract IERC20",
          "name": "",
          "type": "address"
        }
      ],
      "stateMutability": "view",
      "type": "function"
    },
    {
      "inputs": [
        {
          "internalType": "uint256",
          "name": "",
          "type": "uint256"
        }
      ],
      "name": "transactions",
      "outputs": [
        {
          "internalType": "address",
          "name": "to",
          "type": "address"
        },
        {
          "internalType": "uint256",
          "name": "value",
          "type": "uint256"
        },
        {
          "internalType": "bytes",
          "name": "data",
          "type": "bytes"
        },
        {
          "internalType": "bool",
          "name": "executed",
          "type": "bool"
        },
        {
          "internalType": "uint256",
          "name": "numConfirmations",
          "type": "uint256"
        }
      ],
      "stateMutability": "view",
      "type": "function"
    },
    {
      "stateMutability": "payable",
      "type": "receive"
    }
  ],
  "bytecode": "0x60806040523480156200001157600080fd5b50604051620028d1380380620028d1833981810160405281019062000037919062000547565b60008251116200007e576040517f08c379a0000000000000000000000000000000000000000000000000000000008152600401620000759062000623565b60405180910390fd5b60008111801562000090575081518111155b620000d2576040517f08c379a0000000000000000000000000000000000000000000000000000000008152600401620000c990620006bb565b60405180910390fd5b82600360006101000a81548173ffffffffffffffffffffffffffffffffffffffff021916908373ffffffffffffffffffffffffffffffffffffffff16021790555060005b82518110156200030d576000838281518110620001385762000137620006dd565b5b60200260200101519050600073ffffffffffffffffffffffffffffffffffffffff168173ffffffffffffffffffffffffffffffffffffffff1603620001b4576040517f08c379a0000000000000000000000000000000000000000000000000000000008152600401620001ab906200075c565b60405180910390fd5b600160008273ffffffffffffffffffffffffffffffffffffffff1673ffffffffffffffffffffffffffffffffffffffff16815260200190815260200160002060009054906101000a900460ff161562000244576040517f08c379a00000000000000000000000000000000000000000000000000000000081526004016200023b90620007ce565b60405180910390fd5b60018060008373ffffffffffffffffffffffffffffffffffffffff1673ffffffffffffffffffffffffffffffffffffffff16815260200190815260200160002060006101000a81548160ff0219169083151502179055506000819080600181540180825580915050600190039060005260206000200160009091909190916101000a81548173ffffffffffffffffffffffffffffffffffffffff021916908373ffffffffffffffffffffffffffffffffffffffff16021790555050808060010191505062000116565b5080600281905550505050620007f0565b6000604051905090565b600080fd5b600080fd5b600073ffffffffffffffffffffffffffffffffffffffff82169050919050565b60006200035f8262000332565b9050919050565b620003718162000352565b81146200037d57600080fd5b50565b600081519050620003918162000366565b92915050565b600080fd5b6000601f19601f8301169050919050565b7f4e487b7100000000000000000000000000000000000000000000000000000000600052604160045260246000fd5b620003e7826200039c565b810181811067ffffffffffffffff82111715620004095762000408620003ad565b5b80604052505050565b60006200041e6200031e565b90506200042c8282620003dc565b919050565b600067ffffffffffffffff8211156200044f576200044e620003ad565b5b602082029050602081019050919050565b600080fd5b60006200047c620004768462000431565b62000412565b90508083825260208201905060208402830185811115620004a257620004a162000460565b5b835b81811015620004cf5780620004ba888262000380565b845260208401935050602081019050620004a4565b5050509392505050565b600082601f830112620004f157620004f062000397565b5b81516200050384826020860162000465565b91505092915050565b6000819050919050565b62000521816200050c565b81146200052d57600080fd5b50565b600081519050620005418162000516565b92915050565b60008060006060848603121562000563576200056262000328565b5b6000620005738682870162000380565b935050602084015167ffffffffffffffff8111156200059757620005966200032d565b5b620005a586828701620004d9565b9250506040620005b88682870162000530565b9150509250925092565b600082825260208201905092915050565b7f6f776e6572732072657175697265640000000000000000000000000000000000600082015250565b60006200060b600f83620005c2565b91506200061882620005d3565b602082019050919050565b600060208201905081810360008301526200063e81620005fc565b9050919050565b7f696e76616c6964206e756d626572206f6620726571756972656420636f6e666960008201527f726d6174696f6e73000000000000000000000000000000000000000000000000602082015250565b6000620006a3602883620005c2565b9150620006b08262000645565b604082019050919050565b60006020820190508181036000830152620006d68162000694565b9050919050565b7f4e487b7100000000000000000000000000000000000000000000000000000000600052603260045260246000fd5b7f696e76616c6964206f776e657200000000000000000000000000000000000000600082015250565b600062000744600d83620005c2565b915062000751826200070c565b602082019050919050565b60006020820190508181036000830152620007778162000735565b9050919050565b7f6f776e6572206e6f7420756e6971756500000000000000000000000000000000600082015250565b6000620007b6601083620005c2565b9150620007c3826200077e565b602082019050919050565b60006020820190508181036000830152620007e981620007a7565b9050919050565b6120d180620008006000396000f3fe6080604052600436106100e15760003560e01c80639ace38c21161007f578063c642747411610059578063c642747414610349578063d0549b8514610372578063ee22610b1461039d578063fc0c546a146103c657610138565b80639ace38c2146102b4578063a0e67e2b146102f5578063c01a8c841461032057610138565b80632e7700f0116100bb5780632e7700f0146101ce5780632f54bf6e146101f957806333ea3dc81461023657806380f59a651461027757610138565b8063025e7c271461013d57806312065fe01461017a57806320ea8d86146101a557610138565b36610138573373ffffffffffffffffffffffffffffffffffffffff167f90890809c654f11d6e72a28fa60149770a0d11ec6c92319d6ceb2bb0a4ea1a15344760405161012e929190611302565b60405180910390a2005b600080fd5b34801561014957600080fd5b50610164600480360381019061015f919061136b565b6103f1565b60405161017191906113d9565b60405180910390f35b34801561018657600080fd5b5061018f610430565b60405161019c91906113f4565b60405180910390f35b3480156101b157600080fd5b506101cc60048036038101906101c7919061136b565b6104d3565b005b3480156101da57600080fd5b506101e36107ad565b6040516101f091906113f4565b60405180910390f35b34801561020557600080fd5b50610220600480360381019061021b919061143b565b6107ba565b60405161022d9190611483565b60405180910390f35b34801561024257600080fd5b5061025d6004803603810190610258919061136b565b6107da565b60405161026e95949392919061152e565b60405180910390f35b34801561028357600080fd5b5061029e60048036038101906102999190611588565b6108ed565b6040516102ab9190611483565b60405180910390f35b3480156102c057600080fd5b506102db60048036038101906102d6919061136b565b61091c565b6040516102ec95949392919061152e565b60405180910390f35b34801561030157600080fd5b5061030a610a17565b6040516103179190611686565b60405180910390f35b34801561032c57600080fd5b506103476004803603810190610342919061136b565b610aa5565b005b34801561035557600080fd5b50610370600480360381019061036b91906117dd565b610d82565b005b34801561037e57600080fd5b50610387610f98565b60405161039491906113f4565b60405180910390f35b3480156103a957600080fd5b506103c460048036038101906103bf919061136b565b610f9e565b005b3480156103d257600080fd5b506103db6112c3565b6040516103e891906118ab565b60405180910390f35b6000818154811061040157600080fd5b906000526020600020016000915054906101000a900473ffffffffffffffffffffffffffffffffffffffff1681565b6000600360009054906101000a900473ffffffffffffffffffffffffffffffffffffffff1673ffffffffffffffffffffffffffffffffffffffff166370a08231306040518263ffffffff1660e01b815260040161048d91906113d9565b602060405180830381865afa1580156104aa573d6000803e3d6000fd5b505050506040513d601f19601f820116820180604052508101906104ce91906118db565b905090565b600160003373ffffffffffffffffffffffffffffffffffffffff1673ffffffffffffffffffffffffffffffffffffffff16815260200190815260200160002060009054906101000a900460ff1661055f576040517f08c379a000000000000000000000000000000000000000000000000000000000815260040161055690611965565b60405180910390fd5b8060058054905081106105a7576040517f08c379a000000000000000000000000000000000000000000000000000000000815260040161059e906119d1565b60405180910390fd5b81600581815481106105bc576105bb6119f1565b5b906000526020600020906005020160030160009054906101000a900460ff161561061b576040517f08c379a000000000000000000000000000000000000000000000000000000000815260040161061290611a6c565b60405180910390fd5b600060058481548110610631576106306119f1565b5b906000526020600020906005020190506004600085815260200190815260200160002060003373ffffffffffffffffffffffffffffffffffffffff1673ffffffffffffffffffffffffffffffffffffffff16815260200190815260200160002060009054906101000a900460ff166106de576040517f08c379a00000000000000000000000000000000000000000000000000000000081526004016106d590611ad8565b60405180910390fd5b60018160040160008282546106f39190611b27565b9250508190555060006004600086815260200190815260200160002060003373ffffffffffffffffffffffffffffffffffffffff1673ffffffffffffffffffffffffffffffffffffffff16815260200190815260200160002060006101000a81548160ff021916908315150217905550833373ffffffffffffffffffffffffffffffffffffffff167ff0dca620e2e81f7841d07bcc105e1704fb01475b278a9d4c236e1c62945edd5560405160405180910390a350505050565b6000600580549050905090565b60016020528060005260406000206000915054906101000a900460ff1681565b60008060606000806000600587815481106107f8576107f76119f1565b5b906000526020600020906005020190508060000160009054906101000a900473ffffffffffffffffffffffffffffffffffffffff168160010154826002018360030160009054906101000a900460ff16846004015482805461085990611b8a565b80601f016020809104026020016040519081016040528092919081815260200182805461088590611b8a565b80156108d25780601f106108a7576101008083540402835291602001916108d2565b820191906000526020600020905b8154815290600101906020018083116108b557829003601f168201915b50505050509250955095509550955095505091939590929450565b60046020528160005260406000206020528060005260406000206000915091509054906101000a900460ff1681565b6005818154811061092c57600080fd5b90600052602060002090600502016000915090508060000160009054906101000a900473ffffffffffffffffffffffffffffffffffffffff169080600101549080600201805461097b90611b8a565b80601f01602080910402602001604051908101604052809291908181526020018280546109a790611b8a565b80156109f45780601f106109c9576101008083540402835291602001916109f4565b820191906000526020600020905b8154815290600101906020018083116109d757829003601f168201915b5050505050908060030160009054906101000a900460ff16908060040154905085565b60606000805480602002602001604051908101604052809291908181526020018280548015610a9b57602002820191906000526020600020905b8160009054906101000a900473ffffffffffffffffffffffffffffffffffffffff1673ffffffffffffffffffffffffffffffffffffffff1681526020019060010190808311610a51575b5050505050905090565b600160003373ffffffffffffffffffffffffffffffffffffffff1673ffffffffffffffffffffffffffffffffffffffff16815260200190815260200160002060009054906101000a900460ff16610b31576040517f08c379a0000000000000000000000000000000000000000000000000000000008152600401610b2890611965565b60405180910390fd5b806005805490508110610b79576040517f08c379a0000000000000000000000000000000000000000000000000000000008152600401610b70906119d1565b60405180910390fd5b8160058181548110610b8e57610b8d6119f1565b5b906000526020600020906005020160030160009054906101000a900460ff1615610bed576040517f08c379a0000000000000000000000000000000000000000000000000000000008152600401610be490611a6c565b60405180910390fd5b826004600082815260200190815260200160002060003373ffffffffffffffffffffffffffffffffffffffff1673ffffffffffffffffffffffffffffffffffffffff16815260200190815260200160002060009054906101000a900460ff1615610c8c576040517f08c379a0000000000000000000000000000000000000000000000000000000008152600401610c8390611c07565b60405180910390fd5b600060058581548110610ca257610ca16119f1565b5b906000526020600020906005020190506001816004016000828254610cc79190611c27565b9250508190555060016004600087815260200190815260200160002060003373ffffffffffffffffffffffffffffffffffffffff1673ffffffffffffffffffffffffffffffffffffffff16815260200190815260200160002060006101000a81548160ff021916908315150217905550843373ffffffffffffffffffffffffffffffffffffffff167f5cbe105e36805f7820e291f799d5794ff948af2a5f664e580382defb6339004160405160405180910390a35050505050565b600160003373ffffffffffffffffffffffffffffffffffffffff1673ffffffffffffffffffffffffffffffffffffffff16815260200190815260200160002060009054906101000a900460ff16610e0e576040517f08c379a0000000000000000000000000000000000000000000000000000000008152600401610e0590611965565b60405180910390fd5b6000600580549050905060056040518060a001604052808673ffffffffffffffffffffffffffffffffffffffff168152602001670de0b6b3a764000086610e559190611c5b565b81526020018481526020016000151581526020016000815250908060018154018082558091505060019003906000526020600020906005020160009091909190915060008201518160000160006101000a81548173ffffffffffffffffffffffffffffffffffffffff021916908373ffffffffffffffffffffffffffffffffffffffff160217905550602082015181600101556040820151816002019081610efd9190611e3f565b5060608201518160030160006101000a81548160ff0219169083151502179055506080820151816004015550508373ffffffffffffffffffffffffffffffffffffffff16813373ffffffffffffffffffffffffffffffffffffffff167fd5a05bf70715ad82a09a756320284a1b54c9ff74cd0f8cce6219e79b563fe59d8686604051610f8a929190611f11565b60405180910390a450505050565b60025481565b600160003373ffffffffffffffffffffffffffffffffffffffff1673ffffffffffffffffffffffffffffffffffffffff16815260200190815260200160002060009054906101000a900460ff1661102a576040517f08c379a000000000000000000000000000000000000000000000000000000000815260040161102190611965565b60405180910390fd5b806005805490508110611072576040517f08c379a0000000000000000000000000000000000000000000000000000000008152600401611069906119d1565b60405180910390fd5b8160058181548110611087576110866119f1565b5b906000526020600020906005020160030160009054906101000a900460ff16156110e6576040517f08c379a00000000000000000000000000000000000000000000000000000000081526004016110dd90611a6c565b60405180910390fd5b6000600584815481106110fc576110fb6119f1565b5b9060005260206000209060050201905060025481600401541015611155576040517f08c379a000000000000000000000000000000000000000000000000000000000815260040161114c90611f8d565b60405180910390fd5b60018160030160006101000a81548160ff021916908315150217905550600360009054906101000a900473ffffffffffffffffffffffffffffffffffffffff1673ffffffffffffffffffffffffffffffffffffffff1663a9059cbb8260000160009054906101000a900473ffffffffffffffffffffffffffffffffffffffff1683600101546040518363ffffffff1660e01b81526004016111f7929190611fad565b6020604051808303816000875af1158015611216573d6000803e3d6000fd5b505050506040513d601f19601f8201168201806040525081019061123a9190612002565b611279576040517f08c379a00000000000000000000000000000000000000000000000000000000081526004016112709061207b565b60405180910390fd5b833373ffffffffffffffffffffffffffffffffffffffff167f5445f318f4f5fcfb66592e68e0cc5822aa15664039bd5f0ffde24c5a8142b1ac60405160405180910390a350505050565b600360009054906101000a900473ffffffffffffffffffffffffffffffffffffffff1681565b6000819050919050565b6112fc816112e9565b82525050565b600060408201905061131760008301856112f3565b61132460208301846112f3565b9392505050565b6000604051905090565b600080fd5b600080fd5b611348816112e9565b811461135357600080fd5b50565b6000813590506113658161133f565b92915050565b60006020828403121561138157611380611335565b5b600061138f84828501611356565b91505092915050565b600073ffffffffffffffffffffffffffffffffffffffff82169050919050565b60006113c382611398565b9050919050565b6113d3816113b8565b82525050565b60006020820190506113ee60008301846113ca565b92915050565b600060208201905061140960008301846112f3565b92915050565b611418816113b8565b811461142357600080fd5b50565b6000813590506114358161140f565b92915050565b60006020828403121561145157611450611335565b5b600061145f84828501611426565b91505092915050565b60008115159050919050565b61147d81611468565b82525050565b60006020820190506114986000830184611474565b92915050565b600081519050919050565b600082825260208201905092915050565b60005b838110156114d85780820151818401526020810190506114bd565b60008484015250505050565b6000601f19601f8301169050919050565b60006115008261149e565b61150a81856114a9565b935061151a8185602086016114ba565b611523816114e4565b840191505092915050565b600060a08201905061154360008301886113ca565b61155060208301876112f3565b818103604083015261156281866114f5565b90506115716060830185611474565b61157e60808301846112f3565b9695505050505050565b6000806040838503121561159f5761159e611335565b5b60006115ad85828601611356565b92505060206115be85828601611426565b9150509250929050565b600081519050919050565b600082825260208201905092915050565b6000819050602082019050919050565b6115fd816113b8565b82525050565b600061160f83836115f4565b60208301905092915050565b6000602082019050919050565b6000611633826115c8565b61163d81856115d3565b9350611648836115e4565b8060005b838110156116795781516116608882611603565b975061166b8361161b565b92505060018101905061164c565b5085935050505092915050565b600060208201905081810360008301526116a08184611628565b905092915050565b600080fd5b600080fd5b7f4e487b7100000000000000000000000000000000000000000000000000000000600052604160045260246000fd5b6116ea826114e4565b810181811067ffffffffffffffff82111715611709576117086116b2565b5b80604052505050565b600061171c61132b565b905061172882826116e1565b919050565b600067ffffffffffffffff821115611748576117476116b2565b5b611751826114e4565b9050602081019050919050565b82818337600083830152505050565b600061178061177b8461172d565b611712565b90508281526020810184848401111561179c5761179b6116ad565b5b6117a784828561175e565b509392505050565b600082601f8301126117c4576117c36116a8565b5b81356117d484826020860161176d565b91505092915050565b6000806000606084860312156117f6576117f5611335565b5b600061180486828701611426565b935050602061181586828701611356565b925050604084013567ffffffffffffffff8111156118365761183561133a565b5b611842868287016117af565b9150509250925092565b6000819050919050565b600061187161186c61186784611398565b61184c565b611398565b9050919050565b600061188382611856565b9050919050565b600061189582611878565b9050919050565b6118a58161188a565b82525050565b60006020820190506118c0600083018461189c565b92915050565b6000815190506118d58161133f565b92915050565b6000602082840312156118f1576118f0611335565b5b60006118ff848285016118c6565b91505092915050565b600082825260208201905092915050565b7f6e6f74206f776e65720000000000000000000000000000000000000000000000600082015250565b600061194f600983611908565b915061195a82611919565b602082019050919050565b6000602082019050818103600083015261197e81611942565b9050919050565b7f747820646f6573206e6f74206578697374000000000000000000000000000000600082015250565b60006119bb601183611908565b91506119c682611985565b602082019050919050565b600060208201905081810360008301526119ea816119ae565b9050919050565b7f4e487b7100000000000000000000000000000000000000000000000000000000600052603260045260246000fd5b7f747820616c726561647920657865637574656400000000000000000000000000600082015250565b6000611a56601383611908565b9150611a6182611a20565b602082019050919050565b60006020820190508181036000830152611a8581611a49565b9050919050565b7f7478206e6f7420636f6e6669726d656400000000000000000000000000000000600082015250565b6000611ac2601083611908565b9150611acd82611a8c565b602082019050919050565b60006020820190508181036000830152611af181611ab5565b9050919050565b7f4e487b7100000000000000000000000000000000000000000000000000000000600052601160045260246000fd5b6000611b32826112e9565b9150611b3d836112e9565b9250828203905081811115611b5557611b54611af8565b5b92915050565b7f4e487b7100000000000000000000000000000000000000000000000000000000600052602260045260246000fd5b60006002820490506001821680611ba257607f821691505b602082108103611bb557611bb4611b5b565b5b50919050565b7f747820616c726561647920636f6e6669726d6564000000000000000000000000600082015250565b6000611bf1601483611908565b9150611bfc82611bbb565b602082019050919050565b60006020820190508181036000830152611c2081611be4565b9050919050565b6000611c32826112e9565b9150611c3d836112e9565b9250828201905080821115611c5557611c54611af8565b5b92915050565b6000611c66826112e9565b9150611c71836112e9565b9250828202611c7f816112e9565b91508282048414831517611c9657611c95611af8565b5b5092915050565b60008190508160005260206000209050919050565b60006020601f8301049050919050565b600082821b905092915050565b600060088302611cff7fffffffffffffffffffffffffffffffffffffffffffffffffffffffffffffffff82611cc2565b611d098683611cc2565b95508019841693508086168417925050509392505050565b6000611d3c611d37611d32846112e9565b61184c565b6112e9565b9050919050565b6000819050919050565b611d5683611d21565b611d6a611d6282611d43565b848454611ccf565b825550505050565b600090565b611d7f611d72565b611d8a818484611d4d565b505050565b5b81811015611dae57611da3600082611d77565b600181019050611d90565b5050565b601f821115611df357611dc481611c9d565b611dcd84611cb2565b81016020851015611ddc578190505b611df0611de885611cb2565b830182611d8f565b50505b505050565b600082821c905092915050565b6000611e1660001984600802611df8565b1980831691505092915050565b6000611e2f8383611e05565b9150826002028217905092915050565b611e488261149e565b67ffffffffffffffff811115611e6157611e606116b2565b5b611e6b8254611b8a565b611e76828285611db2565b600060209050601f831160018114611ea95760008415611e97578287015190505b611ea18582611e23565b865550611f09565b601f198416611eb786611c9d565b60005b82811015611edf57848901518255600182019150602085019450602081019050611eba565b86831015611efc5784890151611ef8601f891682611e05565b8355505b6001600288020188555050505b505050505050565b6000604082019050611f2660008301856112f3565b8181036020830152611f3881846114f5565b90509392505050565b7f63616e6e6f742065786563757465207478000000000000000000000000000000600082015250565b6000611f77601183611908565b9150611f8282611f41565b602082019050919050565b60006020820190508181036000830152611fa681611f6a565b9050919050565b6000604082019050611fc260008301856113ca565b611fcf60208301846112f3565b9392505050565b611fdf81611468565b8114611fea57600080fd5b50565b600081519050611ffc81611fd6565b92915050565b60006020828403121561201857612017611335565b5b600061202684828501611fed565b91505092915050565b7f746f6b656e207472616e73666572206661696c65640000000000000000000000600082015250565b6000612065601583611908565b91506120708261202f565b602082019050919050565b6000602082019050818103600083015261209481612058565b905091905056fea26469706673582212200f784aceb1bac73031f00fbc4c1a79fcdd0a8226f3c136c2ef2b95064dc4b13b64736f6c63430008180033",
  "linkReferences": {},
  "deployedLinkReferences": {}
}